:100000003DEF01F00000000000EF00F000000000F4
:0A0010000000000000000000F3D71C
:0A001C00210E0D6E0D2EFED712000E
:100026000F0E0C6E470E0D6E0D2EFED70C2EFCD746
:06003600000000001200B2
:06003C00000000001200AC
:1000420002013CBF02D08A9601D08A863CBD02D012
:100052008A9401D08A843CBB02D08A9201D08A82DF
:100062003CB902D08A9001D08A8033B702D08A8804
:1000720001D08A988A8AE1DF8A9A3CB702D08A96AE
:1000820001D08A863CB502D08A9401D08A843CB3DE
:1000920002D08A9201D08A823CB102D08A9001D0E9
:1000A2008A8033B702D08A8801D08A988A8AC5DFCB
:0E00B2008A9A33A702D0B6DF01D0AFDF12006A
:1000C000020E0C6E490E0D6E0D2EFED70C2EFCD7B7
:0600D00000000000120018
:0E00D600020133973BC23CF2B1DF33871200C8
:1000E400939A939893909392939493968A9A8A98D6
:1000F4008A968A948A928A9094DF93DF92DF8A8226
:100104008A808A8A99DF8A9A8CDF8A8A95DF8A9A1A
:1001140088DF8A8A91DF8A9A84DF8A908A8A8CDFD0
:100124008A9A7FDF8A8A88DF8A9A8A928A868A8A6A
:1001340083DF8A9A76DF8A968A808A8A7DDF8A9A22
:100144008A908A8A79DF8A9A6CDF8A8A75DF8A9A2A
:100154008A808A8A71DF8A9A64DF8A908A8A6CDF4D
:100164008A9A8A868A848A828A808A8A65DF8A9AB7
:0801740058DF0201338712007D
:10017C000900F5CFE6FF0006FBE10106F9E11200EC
:10018C0002013A6B36C201F0010E006E015004E020
:10019C0000360090FF0FFBD700C039F234C2E9FFE4
:1001AC0035C2EAFF0050EE14016E0152010ED8A4C4
:1001BC00000E006E3851001A18E03751000804E2A6
:1001CC0079DF78DF3707F9D734C2E9FF35C2EAFFA8
:1001DC003951EE14016E0152010ED8A4000E006EBE
:1001EC003851001A02E0FF0E3A6F3AC200F01200CA
:1001FC0010D0800E0201346F1AD0C00E346F17D09D
:10020C00940E346F14D0D40E346F11D0800E346F22
:10021C000ED002013451010AECE03451020AEDE037
:10022C003451030AEDE03451040AEDE0EFD7350503
:10023C00006E3451002600C034F200C03CF2FBDEEC
:10024C003397386B38513625E96E000E3721EA6E3C
:10025C00EE520BE038513625E96E000E3721EA6E6E
:0E026C00EECF3BF232DF382BEDD73387120096
:10027A00CCEC1EF0926A936A946A956A9880989276
:10028A009894988698880F01256B246B236B546B7E
:10029A002F6B2E6B9A8091909A8291929A84919464
:1002AA009A8691969A8891989A8A919A9A8C919C10
:1002BA009A8E919E12DF010E3C6FBEDE0C0E3C6FD1
:1002CA00BBDE010E346F040E356F230E366F020E3D
:1002DA00376F8FDF060E0B6E130E0C6EAD0E0D6EA2
:1002EA000D2EFED70C2EFCD70B2EFAD700000000DD
:1002FA00319F319D3293329131973195319B3199AA
:10030A0032953391329F3395339332993297329D96
:10031A00329B3193309B3099309F309D309330918E
:10032A003097309531918090809280948096809811
:10033A00809A809C809E82908292829482968298F1
:10034A00829A829C829E83908392839483968398D6
:10035A00839A839C839E86928694880E346F0F0EAE
:10036A00356F366B320E376F010E386F0ADF005267
:10037A00D8B446D1010E3C6F5FDE0C0E3C6F5CDEDA
:10038A00010E346F040E356F560E366F000E376F3E
:10039A0030DF020E346F050E356F4B0E366F000ECE
:1003AA00376F27DF8080820E0C6EDD0E0D6E0D2EEC
:1003BA00FED70C2EFCD70000000084A006D084B221
:1003CA0004D084B402D084A6318F820E0C6EDD0E66
:1003DA000D6E0D2EFED70C2EFCD70000000080906B
:1003EA008082820E0C6EDD0E0D6E0D2EFED70C2E47
:1003FA00FCD70000000084B006D084A204D084B4E4
:10040A0002D084A6318D820E0C6EDD0E0D6E0D2E7D
:10041A00FED70C2EFCD70000000080928084820E4A
:10042A000C6EDD0E0D6E0D2EFED70C2EFCD70000C5
:10043A00000084B006D084B204D084A402D084A67A
:10044A003283820E0C6EDD0E0D6E0D2EFED70C2E33
:10045A00FCD70000000080948086820E0C6EDD0EB0
:10046A000D6E0D2EFED70C2EFCD70000000084B0B6
:10047A0006D084B204D084B402D084B63281820E0B
:10048A000C6EDD0E0D6E0D2EFED70C2EFCD7000065
:10049A000000809631AF24D031AD22D032A320D0D3
:1004AA0032A11ED0010E3C6FC7DD0C0E3C6FC4DDBD
:1004BA00010E346F060E356F700E366F000E376FF1
:1004CA0098DE060E0B6E130E0C6EAD0E0D6E0D2E13
:1004DA00FED70C2EFCD70B2EFAD70000000090D0C6
:1004EA00010E3C6FA9DD0C0E3C6FA6DD010E346FC8
:1004FA00030E356F620E366F000E376F7ADE030E0B
:10050A000B6E080E0C6E770E0D6E0D2EFED70C2E8E
:10051A00FCD70B2EFAD7010E3C6F8EDD0C0E3C6F0A
:10052A008BDD030E0B6E080E0C6E770E0D6E0D2E04
:10053A00FED70C2EFCD70B2EFAD7010E346F030E02
:10054A00356F230E366F000E376F53DE030E0B6EB8
:10055A00080E0C6E770E0D6E0D2EFED70C2EFCD7E4
:10056A000B2EFAD7010E3C6F67DD0C0E3C6F64DD73
:10057A00030E0B6E080E0C6E770E0D6E0D2EFED747
:10058A000C2EFCD70B2EFAD7010E346F030E356FE3
:10059A00150E366F000E376F2CDE030E0B6E080E2B
:1005AA000C6E770E0D6E0D2EFED70C2EFCD70B2E71
:1005BA00FAD7010E3C6F40DD0C0E3C6F3DDD030E99
:1005CA000B6E080E0C6E770E0D6E0D2EFED70C2ECE
:1005DA00FCD70B2EFAD7010E346F030E356F3D0E82
:1005EA00366F000E376F05DE030E0B6E080E0C6EAB
:1005FA00770E0D6E0D2EFED70C2EFCD70B2EFAD7CA
:10060A00880E346F0F0E356F010E366F320E376F4C
:10061A00010E386FB6DD0052D8B411D2010E3C6F0C
:10062A000BDD0C0E3C6F08DD010E346F040E356FC6
:10063A00310E366F000E376FDCDD020E346F050E99
:10064A00356F8E0E366F010E376FD3DD8080820EC6
:10065A000C6EDD0E0D6E0D2EFED70C2EFCD7000093
:10066A00000084A00ED084B20CD084B40AD084B620
:10067A0008D084B806D084BA04D084BC02D084AE30
:10068A00318F820E0C6EDD0E0D6E0D2EFED70C2EE6
:10069A00FCD70000000080908082820E0C6EDD0E76
:1006AA000D6E0D2EFED70C2EFCD70000000084B074
:1006BA000ED084A20CD084B40AD084B608D084B8F0
:1006CA0006D084BA04D084BC02D084AE318D820EA6
:1006DA000C6EDD0E0D6E0D2EFED70C2EFCD7000013
:1006EA00000080928084820E0C6EDD0E0D6E0D2E3F
:1006FA00FED70C2EFCD70000000084B00ED084B2C6
:10070A000CD084A40AD084B608D084B806D084BA9F
:10071A0004D084BC02D084AE3283820E0C6EDD0E0D
:10072A000D6E0D2EFED70C2EFCD700000000809413
:10073A008086820E0C6EDD0E0D6E0D2EFED70C2EEF
:10074A00FCD70000000084B00ED084B20CD084B470
:10075A000AD084A608D084B806D084BA04D084BC4F
:10076A0002D084AE3281820E0C6EDD0E0D6E0D2E1D
:10077A00FED70C2EFCD70000000080968088820EDF
:10078A000C6EDD0E0D6E0D2EFED70C2EFCD7000062
:10079A00000084B00ED084B20CD084B40AD084B6DF
:1007AA0008D084A806D084BA04D084BC02D084AE0F
:1007BA003187820E0C6EDD0E0D6E0D2EFED70C2EBD
:1007CA00FCD7000000008098808A820E0C6EDD0E35
:1007DA000D6E0D2EFED70C2EFCD70000000084B043
:1007EA000ED084B20CD084B40AD084B608D084B8AF
:1007FA0006D084AA04D084BC02D084AE3185820E8D
:10080A000C6EDD0E0D6E0D2EFED70C2EFCD70000E1
:10081A000000809A818C820E0C6EDD0E0D6E0D2EFC
:10082A00FED70C2EFCD70000000084B00ED084B294
:10083A000CD084B40AD084B608D084B806D084BA5E
:10084A0004D084AC02D084AE318B820E0C6EDD0EE5
:10085A000D6E0D2EFED70C2EFCD700000000819CD9
:10086A00818E820E0C6EDD0E0D6E0D2EFED70C2EB5
:10087A00FCD70000000084B00ED084B20CD084B43F
:10088A000AD084B608D084B806D084BA04D084BC0E
:10089A0002D084BE3189820E0C6EDD0E0D6E0D2ED5
:1008AA00FED70C2EFCD700000000819E31AF2ED05F
:1008BA0031AD2CD032A32AD032A128D031A726D0EC
:1008CA0031A524D031AB22D031A920D0010E3C6F02
:1008DA0021EC00F00C0E3C6F21EC00F0010E346F9D
:1008EA00060E356F860E366F010E376F82DC060EE6
:1008FA000B6E130E0C6EAD0E0D6E0D2EFED70C2E5A
:10090A00FCD70B2EFAD70000000099D0010E3C6FDD
:10091A0021EC00F00C0E3C6F21EC00F0010E346F5C
:10092A00030E356FA70E366F010E376F62DC030EAA
:10093A000B6E080E0C6E770E0D6E0D2EFED70C2E5A
:10094A00FCD70B2EFAD7010E3C6F21EC00F00C0EEF
:10095A003C6F21EC00F0030E0B6E080E0C6E770E46
:10096A000D6E0D2EFED70C2EFCD70B2EFAD7010ECC
:10097A00346F030E356F990E366F010E376F39DCFF
:10098A00030E0B6E080E0C6E770E0D6E0D2EFED733
:10099A000C2EFCD70B2EFAD7010E3C6F21EC00F07F
:1009AA000C0E3C6F21EC00F0030E0B6E080E0C6E61
:1009BA00770E0D6E0D2EFED70C2EFCD70B2EFAD706
:1009CA00010E346F030E356F600E366F010E376FEE
:1009DA0010DC030E0B6E080E0C6E770E0D6E0D2ECC
:1009EA00FED70C2EFCD70B2EFAD7010E3C6F21EC4A
:1009FA0000F00C0E3C6F21EC00F0030E0B6E080E9B
:100A0A000C6E770E0D6E0D2EFED70C2EFCD70B2E0C
:100A1A00FAD7010E346F030E356F520E366F010E80
:100A2A00376FFEEC00F0030E0B6E080E0C6E770E9D
:100A3A000D6E0D2EFED70C2EFCD70B2EFAD7880E74
:100A4A00346F0F0E356F020E366F320E376F010E8E
:100A5A00386FC6EC00F00052D8B4B1D3010E3C6F27
:100A6A0021EC00F00C0E3C6F21EC00F0010E346F0B
:100A7A00040E356F790E366F010E376FFEEC00F0FB
:100A8A00020E346F050E356F6E0E366F010E376F1C
:100A9A00FEEC00F08080820E0C6EDD0E0D6E0D2EC7
:100AAA00FED70C2EFCD70000000084A01AD084B216
:100ABA0018D084B416D084B614D084B812D084BAAC
:100ACA0010D084BC0ED084BE0CD085B20AD085B4B6
:100ADA0008D085B606D085B804D085BA02D085ACD0
:100AEA00318F820E0C6EDD0E0D6E0D2EFED70C2E82
:100AFA00FCD70000000080908082820E0C6EDD0E12
:100B0A000D6E0D2EFED70C2EFCD70000000084B00F
:100B1A001AD084A218D084B416D084B614D084B85B
:100B2A0012D084BA10D084BC0ED084BE0CD085B248
:100B3A000AD085B408D085B606D085B804D085BA5F
:100B4A0002D085AC318D820E0C6EDD0E0D6E0D2E2F
:100B5A00FED70C2EFCD70000000080928084820E03
:100B6A000C6EDD0E0D6E0D2EFED70C2EFCD700007E
:100B7A00000084B01AD084B218D084A416D084B6E7
:100B8A0014D084B812D084BA10D084BC0ED084BEDB
:100B9A000CD085B20AD085B408D085B606D085B8FF
:100BAA0004D085BA02D085AA3283820E0C6EDD0E7D
:100BBA000D6E0D2EFED70C2EFCD70000000080947F
:100BCA008086820E0C6EDD0E0D6E0D2EFED70C2E5B
:100BDA00FCD70000000084B01AD084B218D084B4C4
:100BEA0016D084A614D084B812D084BA10D084BC8B
:100BFA000ED084BE0CD085B20AD085B408D085B692
:100C0A0006D085B804D085BA02D085AC3281820E6E
:100C1A000C6EDD0E0D6E0D2EFED70C2EFCD70000CD
:100C2A00000080968088820E0C6EDD0E0D6E0D2EF1
:100C3A00FED70C2EFCD70000000084B01AD084B274
:100C4A0018D084B416D084B614D084A812D084BA2A
:100C5A0010D084BC0ED084BE0CD085B20AD085B424
:100C6A0008D085B606D085B804D085BA02D085AC3E
:100C7A003187820E0C6EDD0E0D6E0D2EFED70C2EF8
:100C8A00FCD7000000008098808A820E0C6EDD0E70
:100C9A000D6E0D2EFED70C2EFCD70000000084B07E
:100CAA001AD084B218D084B416D084B614D084B8BA
:100CBA0012D084AA10D084BC0ED084BE0CD085B2C7
:100CCA000AD085B408D085B606D085B804D085BACE
:100CDA0002D085AC3185820E0C6EDD0E0D6E0D2EA6
:100CEA00FED70C2EFCD700000000809A818C820E61
:100CFA000C6EDD0E0D6E0D2EFED70C2EFCD70000ED
:100D0A00000084B01AD084B218D084B416D084B645
:100D1A0014D084B812D084BA10D084AC0ED084BE59
:100D2A000CD085B20AD085B408D085B606D085B86D
:100D3A0004D085BA02D085AC318B820E0C6EDD0EE2
:100D4A000D6E0D2EFED70C2EFCD700000000819CE4
:100D5A00818E820E0C6EDD0E0D6E0D2EFED70C2EC0
:100D6A00FCD70000000084B01AD084B218D084B432
:100D7A0016D084B614D084B812D084BA10D084BCE9
:100D8A000ED084AE0CD085B20AD085B408D085B610
:100D9A0006D085B804D085BA02D085AC3189820ED6
:100DAA000C6EDD0E0D6E0D2EFED70C2EFCD700003C
:100DBA000000819E8280820E0C6EDD0E0D6E0D2E5D
:100DCA00FED70C2EFCD70000000084B01AD084B2E3
:100DDA0018D084B416D084B614D084B812D084BA89
:100DEA0010D084BC0ED084BE0CD085A20AD085B4A3
:100DFA0008D085B606D085B804D085BA02D085ACAD
:100E0A003285820E0C6EDD0E0D6E0D2EFED70C2E67
:100E1A00FCD70000000082908282820E0C6EDD0EEA
:100E2A000D6E0D2EFED70C2EFCD70000000084B0EC
:100E3A001AD084B218D084B416D084B614D084B828
:100E4A0012D084BA10D084BC0ED084BE0CD085B225
:100E5A000AD085A408D085B606D085B804D085BA4C
:100E6A0002D085AC3381820E0C6EDD0E0D6E0D2E16
:100E7A00FED70C2EFCD70000000082928284820EDC
:100E8A000C6EDD0E0D6E0D2EFED70C2EFCD700005B
:100E9A00000084B01AD084B218D084B416D084B6B4
:100EAA0014D084B812D084BA10D084BC0ED084BEB8
:100EBA000CD085B20AD085B408D085A606D085B8EC
:100ECA0004D085BA02D085AC328F820E0C6EDD0E4C
:100EDA000D6E0D2EFED70C2EFCD70000000082945A
:100EEA008286820E0C6EDD0E0D6E0D2EFED70C2E36
:100EFA00FCD70000000084B01AD084B218D084B4A1
:100F0A0016D084B614D084B812D084BA10D084BC57
:100F1A000ED084BE0CD085B20AD085B408D085B66E
:100F2A0006D085A804D085BA02D085AC3385820E56
:100F3A000C6EDD0E0D6E0D2EFED70C2EFCD70000AA
:100F4A00000082968288820E0C6EDD0E0D6E0D2ECA
:100F5A00FED70C2EFCD70000000084B01AD084B251
:100F6A0018D084B416D084B614D084B812D084BAF7
:100F7A0010D084BC0ED084BE0CD085B20AD085B401
:100F8A0008D085B606D085B804D085AA02D085AC2B
:100F9A003383820E0C6EDD0E0D6E0D2EFED70C2ED7
:100FAA00FCD7000000008298828A820E0C6EDD0E49
:100FBA000D6E0D2EFED70C2EFCD70000000084B05B
:100FCA001AD084B218D084B416D084B614D084B897
:100FDA0012D084BA10D084BC0ED084BE0CD085B294
:100FEA000AD085B408D085B606D085B804D085BAAB
:100FFA0002D085BC3289820E0C6EDD0E0D6E0D2E6E
:10100A00FED70C2EFCD700000000829A31AF3BD0ED
:10101A0031AD39D032A337D032A135D031A733D050
:10102A0031A531D031AB2FD031A92DD032A52BD05B
:10103A0033A129D032AF27D033A525D033A323D06B
:10104A0032A921D0010E3C6F21EC00F00C0E3C6F4E
:10105A0021EC00F0010E346F060E356FB50E366FB7
:10106A00010E376FFEEC00F0060E0B6E130E0C6EBF
:10107A00AD0E0D6E0D2EFED70C2EFCD70B2EFAD709
:10108A00000000009CD0010E3C6F21EC00F00C0E19
:10109A003C6F21EC00F0010E346F030E356FF90E30
:1010AA00366F010E376FFEEC00F0030E0B6E080E62
:1010BA000C6E770E0D6E0D2EFED70C2EFCD70B2E56
:1010CA00FAD7010E3C6F21EC00F00C0E3C6F21ECBC
:1010DA0000F0030E0B6E080E0C6E770E0D6E0D2EC1
:1010EA00FED70C2EFCD70B2EFAD7010E346F030E47
:1010FA00356FEB0E366F010E376FFEEC00F0030E04
:10110A000B6E080E0C6E770E0D6E0D2EFED70C2E82
:10111A00FCD70B2EFAD7010E3C6F21EC00F00C0E17
:10112A003C6F21EC00F0030E0B6E080E0C6E770E6E
:10113A000D6E0D2EFED70C2EFCD70B2EFAD7010EF4
:10114A00346F030E356F150E366F020E376FFEECD5
:10115A0000F0030E0B6E080E0C6E770E0D6E0D2E40
:10116A00FED70C2EFCD70B2EFAD7010E3C6F21ECC2
:10117A0000F00C0E3C6F21EC00F0030E0B6E080E13
:10118A000C6E770E0D6E0D2EFED70C2EFCD70B2E85
:10119A00FAD7010E346F030E356F070E366F020E43
:1011AA00376FFEEC00F0030E0B6E080E0C6E770E16
:1011BA000D6E0D2EFED70C2EFCD70B2EFAD7880EED
:1011CA00346F0F0E356F030E366F320E376F010E06
:1011DA00386FC6EC00F00052D8B4F7EF0CF0010EED
:1011EA003C6F21EC00F00C0E3C6F21EC00F0010E7C
:1011FA00346F040E356FC80E366F010E376FFEEC72
:10120A0000F0020E346F050E356FBD0E366F010EFB
:10121A00376FFEEC00F08080820E0C6EDD0E0D6ED4
:10122A000D2EFED70C2EFCD70000000084A01CD087
:10123A0084B21AD084B418D084B616D084B814D024
:10124A0084BA12D084BC10D084BE0ED085B20CD021
:10125A0085B40AD085B608D085B806D085BA04D038
:10126A0085BC02D085AE318F820E0C6EDD0E0D6EFE
:10127A000D2EFED70C2EFCD7000000008090808235
:10128A00820E0C6EDD0E0D6E0D2EFED70C2EFCD7C7
:10129A000000000084B01CD084A21AD084B418D0F4
:1012AA0084B616D084B814D084BA12D084BC10D0B4
:1012BA0084BE0ED085B20CD085B40AD085B608D0CB
:1012CA0085B806D085BA04D085BC02D085AE318DEA
:1012DA00820E0C6EDD0E0D6E0D2EFED70C2EFCD777
:1012EA000000000080928084820E0C6EDD0E0D6E6E
:1012FA000D2EFED70C2EFCD70000000084B01CD0A7
:10130A0084B21AD084A418D084B616D084B814D063
:10131A0084BA12D084BC10D084BE0ED085B20CD050
:10132A0085B40AD085B608D085B806D085BA04D067
:10133A0085BA02D085AE3283820E0C6EDD0E0D6E3A
:10134A000D2EFED70C2EFCD700000000809480865C
:10135A00820E0C6EDD0E0D6E0D2EFED70C2EFCD7F6
:10136A000000000084B01CD084B21AD084B418D013
:10137A0084A616D084B814D084BA12D084BC10D0F3
:10138A0084BE0ED085B20CD085B40AD085B608D0FA
:10139A0085B806D085BA04D085BC02D085AE328124
:1013AA00820E0C6EDD0E0D6E0D2EFED70C2EFCD7A6
:1013BA000000000080968088820E0C6EDD0E0D6E95
:1013CA000D2EFED70C2EFCD70000000084B01CD0D6
:1013DA0084B21AD084B418D084B616D084A814D093
:1013EA0084BA12D084BC10D084BE0ED085B20CD080
:1013FA0085B40AD085B608D085B806D085BA04D097
:10140A0085BC02D085AE3187820E0C6EDD0E0D6E64
:10141A000D2EFED70C2EFCD7000000008098808A83
:10142A00820E0C6EDD0E0D6E0D2EFED70C2EFCD725
:10143A000000000084B01CD084B21AD084B418D042
:10144A0084B616D084B814D084AA12D084BC10D022
:10145A0084BE0ED085B20CD085B40AD085B608D029
:10146A0085B806D085BA04D085BC02D085AE318550
:10147A00820E0C6EDD0E0D6E0D2EFED70C2EFCD7D5
:10148A0000000000809A818C820E0C6EDD0E0D6EBB
:10149A000D2EFED70C2EFCD70000000084B01CD005
:1014AA0084B21AD084B418D084B616D084B814D0B2
:1014BA0084BA12D084AC10D084BE0ED085B20CD0BF
:1014CA0085B40AD085B608D085B806D085BA04D0C6
:1014DA0085BC02D085AE318B820E0C6EDD0E0D6E90
:1014EA000D2EFED70C2EFCD700000000819C818EA9
:1014FA00820E0C6EDD0E0D6E0D2EFED70C2EFCD755
:10150A000000000084B01CD084B21AD084B418D071
:10151A0084B616D084B814D084BA12D084BC10D041
:10152A0084AE0ED085B20CD085B40AD085B608D068
:10153A0085B806D085BA04D085BC02D085AE31897B
:10154A00820E0C6EDD0E0D6E0D2EFED70C2EFCD704
:10155A0000000000819E8280820E0C6EDD0E0D6EF0
:10156A000D2EFED70C2EFCD70000000084B01CD034
:10157A0084B21AD084B418D084B616D084B814D0E1
:10158A0084BA12D084BC10D084BE0ED085A20CD0EE
:10159A0085B40AD085B608D085B806D085BA04D0F5
:1015AA0085BC02D085AE3285820E0C6EDD0E0D6EC4
:1015BA000D2EFED70C2EFCD70000000082908282EE
:1015CA00820E0C6EDD0E0D6E0D2EFED70C2EFCD784
:1015DA000000000084B01CD084B21AD084B418D0A1
:1015EA0084B616D084B814D084BA12D084BC10D071
:1015FA0084BE0ED085B20CD085A40AD085B608D098
:10160A0085B806D085BA04D085BC02D085AE3381B0
:10161A00820E0C6EDD0E0D6E0D2EFED70C2EFCD733
:10162A000000000082928284820E0C6EDD0E0D6E26
:10163A000D2EFED70C2EFCD70000000084B01CD063
:10164A0084B21AD084B418D084B616D084B814D010
:10165A0084BA12D084BC10D084BE0ED085B20CD00D
:10166A0085B40AD085A608D085B806D085BA04D034
:10167A0085BC02D085AE328F820E0C6EDD0E0D6EE9
:10168A000D2EFED70C2EFCD7000000008294828615
:10169A00820E0C6EDD0E0D6E0D2EFED70C2EFCD7B3
:1016AA000000000084B01CD084B21AD084B418D0D0
:1016BA0084B616D084B814D084BA12D084BC10D0A0
:1016CA0084BE0ED085B20CD085B40AD085B608D0B7
:1016DA0085A806D085BA04D085BC02D085AE3385EC
:1016EA00820E0C6EDD0E0D6E0D2EFED70C2EFCD763
:1016FA000000000082968288820E0C6EDD0E0D6E4E
:10170A000D2EFED70C2EFCD70000000084B01CD092
:10171A0084B21AD084B418D084B616D084B814D03F
:10172A0084BA12D084BC10D084BE0ED085B20CD03C
:10173A0085B40AD085B608D085B806D085AA04D063
:10174A0085BC02D085AE3383820E0C6EDD0E0D6E23
:10175A000D2EFED70C2EFCD7000000008298828A3C
:10176A00820E0C6EDD0E0D6E0D2EFED70C2EFCD7E2
:10177A000000000084B01CD084B21AD084B418D0FF
:10178A0084B616D084B814D084BA12D084BC10D0CF
:10179A0084BE0ED085B20CD085B40AD085B608D0E6
:1017AA0085B806D085BA04D085AC02D085AE328918
:1017BA00820E0C6EDD0E0D6E0D2EFED70C2EFCD792
:1017CA0000000000829A828C820E0C6EDD0E0D6E75
:1017DA000D2EFED70C2EFCD70000000084B01CD0C2
:1017EA0084B21AD084B418D084B616D084B814D06F
:1017FA0084BA12D084BC10D084BE0ED085B20CD06C
:10180A0085B40AD085B608D085B806D085BA04D082
:10181A0085BC02D085BE3287820E0C6EDD0E0D6E3F
:10182A000D2EFED70C2EFCD700000000829C31AF93
:10183A003DD031AD3BD032A339D032A137D031A718
:10184A0035D031A533D031AB31D031A92FD032A523
:10185A002DD033A12BD032AF29D033A527D033A333
:10186A0025D032A923D032A721D0010E3C6F21EC1A
:10187A0000F00C0E3C6F21EC00F0010E346F060EE6
:10188A00356FE30E366F010E376FFEEC00F0060E71
:10189A000B6E130E0C6EAD0E0D6E0D2EFED70C2EAA
:1018AA00FCD70B2EFAD7000000009CD0010E3C6F2B
:1018BA0021EC00F00C0E3C6F21EC00F0010E346FAD
:1018CA00030E356FD50E366F010E376FFEEC00F042
:1018DA00030E0B6E080E0C6E770E0D6E0D2EFED7D4
:1018EA000C2EFCD70B2EFAD7010E3C6F21EC00F020
:1018FA000C0E3C6F21EC00F0030E0B6E080E0C6E02
:10190A00770E0D6E0D2EFED70C2EFCD70B2EFAD7A6
:10191A00010E346F030E356F440E366F010E376FAA
:10192A00FEEC00F0030E0B6E080E0C6E770E0D6EB9
:10193A000D2EFED70C2EFCD70B2EFAD7010E3C6FBC
:10194A0021EC00F00C0E3C6F21EC00F0030E0B6E44
:10195A00080E0C6E770E0D6E0D2EFED70C2EFCD7D0
:10196A000B2EFAD7010E346F030E356FB80E366F91
:10197A00000E376FFEEC00F0030E0B6E080E0C6EB5
:10198A00770E0D6E0D2EFED70C2EFCD70B2EFAD726
:10199A00010E3C6F21EC00F00C0E3C6F21EC00F0C4
:1019AA00030E0B6E080E0C6E770E0D6E0D2EFED703
:1019BA000C2EFCD70B2EFAD7010E346F030E356F9F
:1019CA00AA0E366F000E376FFEEC00F0030E0B6E98
:1019DA00080E0C6E770E0D6E0D2EFED70C2EFCD750
:1019EA000B2EFAD7880E346F0F0E356F040E366F32
:1019FA00320E376F010E386FC6EC00F00052D8B4C1
:101A0A001AEF15F0010E3C6F21EC00F00C0E3C6F42
:101A1A0021EC00F0010E346F040E356FD10E366FD3
:101A2A00000E376FFEEC00F0020E346F050E356FB4
:101A3A00C60E366F000E376FFEEC00F08080820E05
:101A4A000C6EDD0E0D6E0D2EFED70C2EFCD700008F
:101A5A00000084A030D084B22ED084B42CD084B6B6
:101A6A002AD084B828D084BA26D084BC24D084BE94
:101A7A0022D085B220D085B41ED085B61CD085B8B8
:101A8A001AD085BA18D085BC16D085BE14D086B0B7
:101A9A0012D087B010D087B20ED087B40CD087B6D8
:101AAA000AD087B808D087BA06D087BC04D087BEC8
:101ABA0002D086A6318F820E0C6EDD0E0D6E0D2EB3
:101ACA00FED70C2EFCD70000000080908082820E88
:101ADA000C6EDD0E0D6E0D2EFED70C2EFCD70000FF
:101AEA00000084B030D084A22ED084B42CD084B626
:101AFA002AD084B828D084BA26D084BC24D084BE04
:101B0A0022D085B220D085B41ED085B61CD085B827
:101B1A001AD085BA18D085BC16D085BE14D086B026
:101B2A0012D087B010D087B20ED087B40CD087B647
:101B3A000AD087B808D087BA06D087BC04D087BE37
:101B4A0002D086A6318D820E0C6EDD0E0D6E0D2E24
:101B5A00FED70C2EFCD70000000080928084820EF3
:101B6A000C6EDD0E0D6E0D2EFED70C2EFCD700006E
:101B7A00000084B030D084B22ED084A42CD084B695
:101B8A002AD084B828D084BA26D084BC24D084BE73
:101B9A0022D085B220D085B41ED085B61CD085B897
:101BAA001AD085BA18D085BA16D085BE14D086B098
:101BBA0012D087B010D087B20ED087B40CD087B6B7
:101BCA000AD087B808D087BA06D087BC04D087BEA7
:101BDA0002D086A63283820E0C6EDD0E0D6E0D2E9D
:101BEA00FED70C2EFCD70000000080948086820E5F
:101BFA000C6EDD0E0D6E0D2EFED70C2EFCD70000DE
:101C0A00000084B030D084B22ED084B42CD084A604
:101C1A002AD084B828D084BA26D084BC24D084BEE2
:101C2A0022D085B220D085B41ED085B61CD085B806
:101C3A001AD085BA18D085BC16D085BE14D086B005
:101C4A0012D087B010D087B20ED087B40CD087B626
:101C5A000AD087B808D087BA06D087BC04D087BE16
:101C6A0002D086A63281820E0C6EDD0E0D6E0D2E0E
:101C7A00FED70C2EFCD70000000080968088820ECA
:101C8A000C6EDD0E0D6E0D2EFED70C2EFCD700004D
:101C9A00000084B030D084B22ED084B42CD084B664
:101CAA002AD084A828D084BA26D084BC24D084BE62
:101CBA0022D085B220D085B41ED085B61CD085B876
:101CCA001AD085BA18D085BC16D085BE14D086B075
:101CDA0012D087B010D087B20ED087B40CD087B696
:101CEA000AD087B808D087BA06D087BC04D087BE86
:101CFA0002D086A63187820E0C6EDD0E0D6E0D2E79
:101D0A00FED70C2EFCD7000000008098808A820E35
:101D1A000C6EDD0E0D6E0D2EFED70C2EFCD70000BC
:101D2A00000084B030D084B22ED084B42CD084B6D3
:101D3A002AD084B828D084AA26D084BC24D084BED1
:101D4A0022D085B220D085B41ED085B61CD085B8E5
:101D5A001AD085BA18D085BC16D085BE14D086B0E4
:101D6A0012D087B010D087B20ED087B40CD087B605
:101D7A000AD087B808D087BA06D087BC04D087BEF5
:101D8A0002D086A63185820E0C6EDD0E0D6E0D2EEA
:101D9A00FED70C2EFCD700000000809A818C820EA0
:101DAA000C6EDD0E0D6E0D2EFED70C2EFCD700002C
:101DBA00000084B030D084B22ED084B42CD084B643
:101DCA002AD084B828D084BA26D084AC24D084BE41
:101DDA0022D085B220D085B41ED085B61CD085B855
:101DEA001AD085BA18D085BC16D085BE14D086B054
:101DFA0012D087B010D087B20ED087B40CD087B675
:101E0A000AD087B808D087BA06D087BC04D087BE64
:101E1A0002D086A6318B820E0C6EDD0E0D6E0D2E53
:101E2A00FED70C2EFCD700000000819C818E820E0A
:101E3A000C6EDD0E0D6E0D2EFED70C2EFCD700009B
:101E4A00000084B030D084B22ED084B42CD084B6B2
:101E5A002AD084B828D084BA26D084BC24D084AEB0
:101E6A0022D085B220D085B41ED085B61CD085B8C4
:101E7A001AD085BA18D085BC16D085BE14D086B0C3
:101E8A0012D087B010D087B20ED087B40CD087B6E4
:101E9A000AD087B808D087BA06D087BC04D087BED4
:101EAA0002D086A63189820E0C6EDD0E0D6E0D2EC5
:101EBA00FED70C2EFCD700000000819E8280820E85
:101ECA000C6EDD0E0D6E0D2EFED70C2EFCD700000B
:101EDA00000084B030D084B22ED084B42CD084B622
:101EEA002AD084B828D084BA26D084BC24D084BE10
:101EFA0022D085A220D085B41ED085B61CD085B844
:101F0A001AD085BA18D085BC16D085BE14D086B032
:101F1A0012D087B010D087B20ED087B40CD087B653
:101F2A000AD087B808D087BA06D087BC04D087BE43
:101F3A0002D086A63285820E0C6EDD0E0D6E0D2E37
:101F4A00FED70C2EFCD70000000082908282820EFF
:101F5A000C6EDD0E0D6E0D2EFED70C2EFCD700007A
:101F6A00000084B030D084B22ED084B42CD084B691
:101F7A002AD084B828D084BA26D084BC24D084BE7F
:101F8A0022D085B220D085A41ED085B61CD085B8B3
:101F9A001AD085BA18D085BC16D085BE14D086B0A2
:101FAA0012D087B010D087B20ED087B40CD087B6C3
:101FBA000AD087B808D087BA06D087BC04D087BEB3
:101FCA0002D086A63381820E0C6EDD0E0D6E0D2EAA
:101FDA00FED70C2EFCD70000000082928284820E6B
:101FEA000C6EDD0E0D6E0D2EFED70C2EFCD70000EA
:101FFA00000084B030D084B22ED084B42CD084B601
:10200A002AD084B828D084BA26D084BC24D084BEEE
:10201A0022D085B220D085B41ED085A61CD085B822
:10202A001AD085BA18D085BC16D085BE14D086B011
:10203A0012D087B010D087B20ED087B40CD087B632
:10204A000AD087B808D087BA06D087BC04D087BE22
:10205A0002D086A6328F820E0C6EDD0E0D6E0D2E0C
:10206A00FED70C2EFCD70000000082948286820ED6
:10207A000C6EDD0E0D6E0D2EFED70C2EFCD7000059
:10208A00000084B030D084B22ED084B42CD084B670
:10209A002AD084B828D084BA26D084BC24D084BE5E
:1020AA0022D085B220D085B41ED085B61CD085A892
:1020BA001AD085BA18D085BC16D085BE14D086B081
:1020CA0012D087B010D087B20ED087B40CD087B6A2
:1020DA000AD087B808D087BA06D087BC04D087BE92
:1020EA0002D086A63385820E0C6EDD0E0D6E0D2E85
:1020FA00FED70C2EFCD70000000082968288820E42
:10210A000C6EDD0E0D6E0D2EFED70C2EFCD70000C8
:10211A00000084B030D084B22ED084B42CD084B6DF
:10212A002AD084B828D084BA26D084BC24D084BECD
:10213A0022D085B220D085B41ED085B61CD085B8F1
:10214A001AD085AA18D085BC16D085BE14D086B000
:10215A0012D087B010D087B20ED087B40CD087B611
:10216A000AD087B808D087BA06D087BC04D087BE01
:10217A0002D086A63383820E0C6EDD0E0D6E0D2EF6
:10218A00FED70C2EFCD7000000008298828A820EAD
:10219A000C6EDD0E0D6E0D2EFED70C2EFCD7000038
:1021AA00000084B030D084B22ED084B42CD084B64F
:1021BA002AD084B828D084BA26D084BC24D084BE3D
:1021CA0022D085B220D085B41ED085B61CD085B861
:1021DA001AD085BA18D085AC16D085BE14D086B070
:1021EA0012D087B010D087B20ED087B40CD087B681
:1021FA000AD087B808D087BA06D087BC04D087BE71
:10220A0002D086A63289820E0C6EDD0E0D6E0D2E60
:10221A00FED70C2EFCD700000000829A828C820E18
:10222A000C6EDD0E0D6E0D2EFED70C2EFCD70000A7
:10223A00000084B030D084B22ED084B42CD084B6BE
:10224A002AD084B828D084BA26D084BC24D084BEAC
:10225A0022D085B220D085B41ED085B61CD085B8D0
:10226A001AD085BA18D085BC16D085AE14D086B0DF
:10227A0012D087B010D087B20ED087B40CD087B6F0
:10228A000AD087B808D087BA06D087BC04D087BEE0
:10229A0002D086A63287820E0C6EDD0E0D6E0D2ED2
:1022AA00FED70C2EFCD700000000829C828E820E84
:1022BA000C6EDD0E0D6E0D2EFED70C2EFCD7000017
:1022CA00000084B030D084B22ED084B42CD084B62E
:1022DA002AD084B828D084BA26D084BC24D084BE1C
:1022EA0022D085B220D085B41ED085B61CD085B840
:1022FA001AD085BA18D085BC16D085BE14D086A04F
:10230A0012D087B010D087B20ED087B40CD087B65F
:10231A000AD087B808D087BA06D087BC04D087BE4F
:10232A0002D086A6328D820E0C6EDD0E0D6E0D2E3B
:10233A00FED70C2EFCD700000000829E8380820EFE
:10234A000C6EDD0E0D6E0D2EFED70C2EFCD7000086
:10235A00000084B030D084B22ED084B42CD084B69D
:10236A002AD084B828D084BA26D084BC24D084BE8B
:10237A0022D085B220D085B41ED085B61CD085B8AF
:10238A001AD085BA18D085BC16D085BE14D086B0AE
:10239A0012D087A010D087B20ED087B40CD087B6DF
:1023AA000AD087B808D087BA06D087BC04D087BEBF
:1023BA0002D086A6328B820E0C6EDD0E0D6E0D2EAD
:1023CA00FED70C2EFCD70000000083908382820E79
:1023DA000C6EDD0E0D6E0D2EFED70C2EFCD70000F6
:1023EA00000084B030D084B22ED084B42CD084B60D
:1023FA002AD084B828D084BA26D084BC24D084BEFB
:10240A0022D085B220D085B41ED085B61CD085B81E
:10241A001AD085BA18D085BC16D085BE14D086B01D
:10242A0012D087B010D087A20ED087B40CD087B64E
:10243A000AD087B808D087BA06D087BC04D087BE2E
:10244A0002D086A63183820E0C6EDD0E0D6E0D2E25
:10245A00FED70C2EFCD70000000083928384820EE4
:10246A000C6EDD0E0D6E0D2EFED70C2EFCD7000065
:10247A00000084B030D084B22ED084B42CD084B67C
:10248A002AD084B828D084BA26D084BC24D084BE6A
:10249A0022D085B220D085B41ED085B61CD085B88E
:1024AA001AD085BA18D085BC16D085BE14D086B08D
:1024BA0012D087B010D087B20ED087A40CD087B6BE
:1024CA000AD087B808D087BA06D087BC04D087BE9E
:1024DA0002D086A6308B820E0C6EDD0E0D6E0D2E8E
:1024EA00FED70C2EFCD70000000083948386820E50
:1024FA000C6EDD0E0D6E0D2EFED70C2EFCD70000D5
:10250A00000084B030D084B22ED084B42CD084B6EB
:10251A002AD084B828D084BA26D084BC24D084BED9
:10252A0022D085B220D085B41ED085B61CD085B8FD
:10253A001AD085BA18D085BC16D085BE14D086B0FC
:10254A0012D087B010D087B20ED087B40CD087A62D
:10255A000AD087B808D087BA06D087BC04D087BE0D
:10256A0002D086A63089820E0C6EDD0E0D6E0D2EFF
:10257A00FED70C2EFCD70000000083968388820EBB
:10258A000C6EDD0E0D6E0D2EFED70C2EFCD7000044
:10259A00000084B030D084B22ED084B42CD084B65B
:1025AA002AD084B828D084BA26D084BC24D084BE49
:1025BA0022D085B220D085B41ED085B61CD085B86D
:1025CA001AD085BA18D085BC16D085BE14D086B06C
:1025DA0012D087B010D087B20ED087B40CD087B68D
:1025EA000AD087A808D087BA06D087BC04D087BE8D
:1025FA0002D086A6308F820E0C6EDD0E0D6E0D2E69
:10260A00FED70C2EFCD7000000008398838A820E26
:10261A000C6EDD0E0D6E0D2EFED70C2EFCD70000B3
:10262A00000084B030D084B22ED084B42CD084B6CA
:10263A002AD084B828D084BA26D084BC24D084BEB8
:10264A0022D085B220D085B41ED085B61CD085B8DC
:10265A001AD085BA18D085BC16D085BE14D086B0DB
:10266A0012D087B010D087B20ED087B40CD087B6FC
:10267A000AD087B808D087AA06D087BC04D087BEFC
:10268A0002D086A6308D820E0C6EDD0E0D6E0D2EDA
:10269A00FED70C2EFCD700000000839A838C820E92
:1026AA000C6EDD0E0D6E0D2EFED70C2EFCD7000023
:1026BA00000084B030D084B22ED084B42CD084B63A
:1026CA002AD084B828D084BA26D084BC24D084BE28
:1026DA0022D085B220D085B41ED085B61CD085B84C
:1026EA001AD085BA18D085BC16D085BE14D086B04B
:1026FA0012D087B010D087B20ED087B40CD087B66C
:10270A000AD087B808D087BA06D087AC04D087BE6B
:10271A0002D086A63083820E0C6EDD0E0D6E0D2E53
:10272A00FED70C2EFCD700000000839C838E820EFD
:10273A000C6EDD0E0D6E0D2EFED70C2EFCD7000092
:10274A00000084B030D084B22ED084B42CD084B6A9
:10275A002AD084B828D084BA26D084BC24D084BE97
:10276A0022D085B220D085B41ED085B61CD085B8BB
:10277A001AD085BA18D085BC16D085BE14D086B0BA
:10278A0012D087B010D087B20ED087B40CD087B6DB
:10279A000AD087B808D087BA06D087BC04D087AEDB
:1027AA0002D086A63081820E0C6EDD0E0D6E0D2EC5
:1027BA00FED70C2EFCD700000000839E8682820E74
:1027CA000C6EDD0E0D6E0D2EFED70C2EFCD7000002
:1027DA00000084B030D084B22ED084B42CD084B619
:1027EA002AD084B828D084BA26D084BC24D084BE07
:1027FA0022D085B220D085B41ED085B61CD085B82B
:10280A001AD085BA18D085BC16D085BE14D086B029
:10281A0012D087B010D087B20ED087B40CD087B64A
:10282A000AD087B808D087BA06D087BC04D087BE3A
:10283A0002D086B63087820E0C6EDD0E0D6E0D2E1E
:10284A00FED70C2EFCD700000000869231AF51D083
:10285A0031AD4FD032A34DD032A14BD031A749D0A0
:10286A0031A547D031AB45D031A943D032A541D0AB
:10287A0033A13FD032AF3DD033A53BD033A339D0BB
:10288A0032A937D032A735D032AD33D032AB31D0BE
:10289A0031A32FD030AB2DD030A92BD030AF29D0D7
:1028AA0030AD27D030A325D030A123D030A721D0F6
:1028BA00010E3C6F21EC00F00C0E3C6F21EC00F095
:1028CA00010E346F060E356F860E366F000E376FA7
:1028DA00FEEC00F0060E0B6E130E0C6EAD0E0D6EB6
:1028EA000D2EFED70C2EFCD70B2EFAD700000000B7
:1028FA009CD0010E3C6F21EC00F00C0E3C6F21ECD9
:10290A0000F0010E346F030E356F780E366F000E2D
:10291A00376FFEEC00F0030E0B6E080E0C6E770E8E
:10292A000D6E0D2EFED70C2EFCD70B2EFAD7010EEC
:10293A003C6F21EC00F00C0E3C6F21EC00F0030E12
:10294A000B6E080E0C6E770E0D6E0D2EFED70C2E2A
:10295A00FCD70B2EFAD7010E346F030E356F9C0E7F
:10296A00366F000E376FFEEC00F0030E0B6E080E8A
:10297A000C6E770E0D6E0D2EFED70C2EFCD70B2E7D
:10298A00FAD7010E3C6F21EC00F00C0E3C6F21ECE3
:10299A0000F0030E0B6E080E0C6E770E0D6E0D2EE8
:1029AA00FED70C2EFCD70B2EFAD7010E346F030E6E
:1029BA00356F8E0E366F000E376FFEEC00F0030E89
:1029CA000B6E080E0C6E770E0D6E0D2EFED70C2EAA
:1029DA00FCD70B2EFAD7010E3C6F21EC00F00C0E3F
:1029EA003C6F21EC00F0030E0B6E080E0C6E770E96
:1029FA000D6E0D2EFED70C2EFCD70B2EFAD7010E1C
:102A0A00346F030E356FDE0E366F000E376FFEEC35
:102A1A0000F0030E0B6E080E0C6E770E0D6E0D2E67
:102A2A00FED70C2EFCD70B2EFAD7880E346F0F0E5A
:102A3A00356F050E366F320E376F010E386FC6ECE2
:102A4A0000F00052D8B4BBEF1DF0010E3C6F21EC30
:102A5A0000F00C0E3C6F21EC00F0010E346F040EF6
:102A6A00356F210E366F010E376FFEEC00F0020E45
:102A7A00346F050E356F160E366F010E376FFEEC8A
:102A8A0000F08080820E0C6EDD0E0D6E0D2EFED7CC
:102A9A000C2EFCD70000000084A032D084B230D0C3
:102AAA0084B42ED084B62CD084B82AD084BA28D044
:102ABA0084BC26D084BE24D085B222D085B420D04E
:102ACA0085B61ED085B81CD085BA1AD085BC18D058
:102ADA0085BE16D086B014D087B012D087B210D077
:102AEA0087B40ED087B60CD087B80AD087BA08D078
:102AFA0087BC06D087BE04D086B602D086A8318F9E
:102B0A00820E0C6EDD0E0D6E0D2EFED70C2EFCD72E
:102B1A000000000080908082820E0C6EDD0E0D6E29
:102B2A000D2EFED70C2EFCD70000000084B032D048
:102B3A0084A230D084B42ED084B62CD084B82AD0C3
:102B4A0084BA28D084BC26D084BE24D085B222D0B0
:102B5A0085B420D085B61ED085B81CD085BA1AD0C7
:102B6A0085BC18D085BE16D086B014D087B012D0D6
:102B7A0087B210D087B40ED087B60CD087B80AD0E7
:102B8A0087BA08D087BC06D087BE04D086B602D0E2
:102B9A0086A8318D820E0C6EDD0E0D6E0D2EFED7BF
:102BAA000C2EFCD70000000080928084820E0C6EEE
:102BBA00DD0E0D6E0D2EFED70C2EFCD70000000088
:102BCA0084B032D084B230D084A42ED084B62CD033
:102BDA0084B82AD084BA28D084BC26D084BE24D013
:102BEA0085B222D085B420D085B61ED085B81CD037
:102BFA0085BA1AD085BA18D085BE16D086B014D038
:102C0A0087B012D087B210D087B40ED087B60CD056
:102C1A0087B80AD087BA08D087BC06D087BE04D046
:102C2A0086B602D086A83283820E0C6EDD0E0D6E39
:102C3A000D2EFED70C2EFCD7000000008094808653
:102C4A00820E0C6EDD0E0D6E0D2EFED70C2EFCD7ED
:102C5A000000000084B032D084B230D084B42ED0C8
:102C6A0084A62CD084B82AD084BA28D084BC26D092
:102C7A0084BE24D085B222D085B420D085B61ED099
:102C8A0085B81CD085BA1AD085BC18D085BE16D096
:102C9A0086B014D087B012D087B210D087B40ED0C5
:102CAA0087B60CD087B80AD087BA08D087BC06D0B6
:102CBA0087BE04D086B602D086A83281820E0C6EF8
:102CCA00DD0E0D6E0D2EFED70C2EFCD70000000077
:102CDA0080968088820E0C6EDD0E0D6E0D2EFED74C
:102CEA000C2EFCD70000000084B032D084B230D061
:102CFA0084B42ED084B62CD084A82AD084BA28D002
:102D0A0084BC26D084BE24D085B222D085B420D0FB
:102D1A0085B61ED085B81CD085BA1AD085BC18D005
:102D2A0085BE16D086B014D087B012D087B210D024
:102D3A0087B40ED087B60CD087B80AD087BA08D025
:102D4A0087BC06D087BE04D086B602D086A8318753
:102D5A00820E0C6EDD0E0D6E0D2EFED70C2EFCD7DC
:102D6A00000000008098808A820E0C6EDD0E0D6EC7
:102D7A000D2EFED70C2EFCD70000000084B032D0F6
:102D8A0084B230D084B42ED084B62CD084B82AD061
:102D9A0084AA28D084BC26D084BE24D085B222D06E
:102DAA0085B420D085B61ED085B81CD085BA1AD075
:102DBA0085BC18D085BE16D086B014D087B012D084
:102DCA0087B210D087B40ED087B60CD087B80AD095
:102DDA0087BA08D087BC06D087BE04D086B602D090
:102DEA0086A83185820E0C6EDD0E0D6E0D2EFED775
:102DFA000C2EFCD700000000809A818C820E0C6E8B
:102E0A00DD0E0D6E0D2EFED70C2EFCD70000000035
:102E1A0084B032D084B230D084B42ED084B62CD0D0
:102E2A0084B82AD084BA28D084AC26D084BE24D0D0
:102E3A0085B222D085B420D085B61ED085B81CD0E4
:102E4A0085BA1AD085BC18D085BE16D086B014D0E3
:102E5A0087B012D087B210D087B40ED087B60CD004
:102E6A0087B80AD087BA08D087BC06D087BE04D0F4
:102E7A0086B602D086A8318B820E0C6EDD0E0D6EE0
:102E8A000D2EFED70C2EFCD700000000819C818EEF
:102E9A00820E0C6EDD0E0D6E0D2EFED70C2EFCD79B
:102EAA000000000084B032D084B230D084B42ED076
:102EBA0084B62CD084B82AD084BA28D084BC26D030
:102ECA0084AE24D085B222D085B420D085B61ED057
:102EDA0085B81CD085BA1AD085BC18D085BE16D044
:102EEA0086B014D087B012D087B210D087B40ED073
:102EFA0087B60CD087B80AD087BA08D087BC06D064
:102F0A0087BE04D086B602D086A83189820E0C6E9E
:102F1A00DD0E0D6E0D2EFED70C2EFCD70000000024
:102F2A00819E8280820E0C6EDD0E0D6E0D2EFED7F6
:102F3A000C2EFCD70000000084B032D084B230D00E
:102F4A0084B42ED084B62CD084B82AD084BA28D09F
:102F5A0084BC26D084BE24D085A222D085B420D0B9
:102F6A0085B61ED085B81CD085BA1AD085BC18D0B3
:102F7A0085BE16D086B014D087B012D087B210D0D2
:102F8A0087B40ED087B60CD087B80AD087BA08D0D3
:102F9A0087BC06D087BE04D086B602D086A8328502
:102FAA00820E0C6EDD0E0D6E0D2EFED70C2EFCD78A
:102FBA000000000082908282820E0C6EDD0E0D6E81
:102FCA000D2EFED70C2EFCD70000000084B032D0A4
:102FDA0084B230D084B42ED084B62CD084B82AD00F
:102FEA0084BA28D084BC26D084BE24D085B222D00C
:102FFA0085A420D085B61ED085B81CD085BA1AD033
:10300A0085BC18D085BE16D086B014D087B012D031
:10301A0087B210D087B40ED087B60CD087B80AD042
:10302A0087BA08D087BC06D087BE04D086B602D03D
:10303A0086A83381820E0C6EDD0E0D6E0D2EFED724
:10304A000C2EFCD70000000082928284820E0C6E45
:10305A00DD0E0D6E0D2EFED70C2EFCD700000000E3
:10306A0084B032D084B230D084B42ED084B62CD07E
:10307A0084B82AD084BA28D084BC26D084BE24D06E
:10308A0085B222D085B420D085A61ED085B81CD0A2
:10309A0085BA1AD085BC18D085BE16D086B014D091
:1030AA0087B012D087B210D087B40ED087B60CD0B2
:1030BA0087B80AD087BA08D087BC06D087BE04D0A2
:1030CA0086B602D086A8328F820E0C6EDD0E0D6E89
:1030DA000D2EFED70C2EFCD70000000082948286AB
:1030EA00820E0C6EDD0E0D6E0D2EFED70C2EFCD749
:1030FA000000000084B032D084B230D084B42ED024
:10310A0084B62CD084B82AD084BA28D084BC26D0DD
:10311A0084BE24D085B222D085B420D085B61ED0F4
:10312A0085A81CD085BA1AD085BC18D085BE16D001
:10313A0086B014D087B012D087B210D087B40ED020
:10314A0087B60CD087B80AD087BA08D087BC06D011
:10315A0087BE04D086B602D086A83385820E0C6E4E
:10316A00DD0E0D6E0D2EFED70C2EFCD700000000D2
:10317A0082968288820E0C6EDD0E0D6E0D2EFED7A3
:10318A000C2EFCD70000000084B032D084B230D0BC
:10319A0084B42ED084B62CD084B82AD084BA28D04D
:1031AA0084BC26D084BE24D085B222D085B420D057
:1031BA0085B61ED085B81CD085AA1AD085BC18D071
:1031CA0085BE16D086B014D087B012D087B210D080
:1031DA0087B40ED087B60CD087B80AD087BA08D081
:1031EA0087BC06D087BE04D086B602D086A83383B1
:1031FA00820E0C6EDD0E0D6E0D2EFED70C2EFCD738
:10320A00000000008298828A820E0C6EDD0E0D6E1E
:10321A000D2EFED70C2EFCD70000000084B032D051
:10322A0084B230D084B42ED084B62CD084B82AD0BC
:10323A0084BA28D084BC26D084BE24D085B222D0B9
:10324A0085B420D085B61ED085B81CD085BA1AD0D0
:10325A0085AC18D085BE16D086B014D087B012D0EF
:10326A0087B210D087B40ED087B60CD087B80AD0F0
:10327A0087BA08D087BC06D087BE04D086B602D0EB
:10328A0086A83289820E0C6EDD0E0D6E0D2EFED7CB
:10329A000C2EFCD700000000829A828C820E0C6EE3
:1032AA00DD0E0D6E0D2EFED70C2EFCD70000000091
:1032BA0084B032D084B230D084B42ED084B62CD02C
:1032CA0084B82AD084BA28D084BC26D084BE24D01C
:1032DA0085B222D085B420D085B61ED085B81CD040
:1032EA0085BA1AD085BC18D085AE16D086B014D04F
:1032FA0087B012D087B210D087B40ED087B60CD060
:10330A0087B80AD087BA08D087BC06D087BE04D04F
:10331A0086B602D086A83287820E0C6EDD0E0D6E3E
:10332A000D2EFED70C2EFCD700000000829C828E48
:10333A00820E0C6EDD0E0D6E0D2EFED70C2EFCD7F6
:10334A000000000084B032D084B230D084B42ED0D1
:10335A0084B62CD084B82AD084BA28D084BC26D08B
:10336A0084BE24D085B222D085B420D085B61ED0A2
:10337A0085B81CD085BA1AD085BC18D085BE16D09F
:10338A0086A014D087B012D087B210D087B40ED0DE
:10339A0087B60CD087B80AD087BA08D087BC06D0BF
:1033AA0087BE04D086B602D086A8328D820E0C6EF5
:1033BA00DD0E0D6E0D2EFED70C2EFCD70000000080
:1033CA00829E8380820E0C6EDD0E0D6E0D2EFED750
:1033DA000C2EFCD70000000084B032D084B230D06A
:1033EA0084B42ED084B62CD084B82AD084BA28D0FB
:1033FA0084BC26D084BE24D085B222D085B420D005
:10340A0085B61ED085B81CD085BA1AD085BC18D00E
:10341A0085BE16D086B014D087A012D087B210D03D
:10342A0087B40ED087B60CD087B80AD087BA08D02E
:10343A0087BC06D087BE04D086B602D086A8328B57
:10344A00820E0C6EDD0E0D6E0D2EFED70C2EFCD7E5
:10345A000000000083908382820E0C6EDD0E0D6EDA
:10346A000D2EFED70C2EFCD70000000084B032D0FF
:10347A0084B230D084B42ED084B62CD084B82AD06A
:10348A0084BA28D084BC26D084BE24D085B222D067
:10349A0085B420D085B61ED085B81CD085BA1AD07E
:1034AA0085BC18D085BE16D086B014D087B012D08D
:1034BA0087A210D087B40ED087B60CD087B80AD0AE
:1034CA0087BA08D087BC06D087BE04D086B602D099
:1034DA0086A83183820E0C6EDD0E0D6E0D2EFED780
:1034EA000C2EFCD70000000083928384820E0C6E9F
:1034FA00DD0E0D6E0D2EFED70C2EFCD7000000003F
:10350A0084B032D084B230D084B42ED084B62CD0D9
:10351A0084B82AD084BA28D084BC26D084BE24D0C9
:10352A0085B222D085B420D085B61ED085B81CD0ED
:10353A0085BA1AD085BC18D085BE16D086B014D0EC
:10354A0087B012D087B210D087A40ED087B60CD01D
:10355A0087B80AD087BA08D087BC06D087BE04D0FD
:10356A0086B602D086A8308B820E0C6EDD0E0D6EEA
:10357A000D2EFED70C2EFCD7000000008394838604
:10358A00820E0C6EDD0E0D6E0D2EFED70C2EFCD7A4
:10359A000000000084B032D084B230D084B42ED07F
:1035AA0084B62CD084B82AD084BA28D084BC26D039
:1035BA0084BE24D085B222D085B420D085B61ED050
:1035CA0085B81CD085BA1AD085BC18D085BE16D04D
:1035DA0086B014D087B012D087B210D087B40ED07C
:1035EA0087A60CD087B80AD087BA08D087BC06D07D
:1035FA0087BE04D086B602D086A83089820E0C6EA9
:10360A00DD0E0D6E0D2EFED70C2EFCD7000000002D
:10361A0083968388820E0C6EDD0E0D6E0D2EFED7FC
:10362A000C2EFCD70000000084B032D084B230D017
:10363A0084B42ED084B62CD084B82AD084BA28D0A8
:10364A0084BC26D084BE24D085B222D085B420D0B2
:10365A0085B61ED085B81CD085BA1AD085BC18D0BC
:10366A0085BE16D086B014D087B012D087B210D0DB
:10367A0087B40ED087B60CD087A80AD087BA08D0EC
:10368A0087BC06D087BE04D086B602D086A8308F03
:10369A00820E0C6EDD0E0D6E0D2EFED70C2EFCD793
:1036AA00000000008398838A820E0C6EDD0E0D6E78
:1036BA000D2EFED70C2EFCD70000000084B032D0AD
:1036CA0084B230D084B42ED084B62CD084B82AD018
:1036DA0084BA28D084BC26D084BE24D085B222D015
:1036EA0085B420D085B61ED085B81CD085BA1AD02C
:1036FA0085BC18D085BE16D086B014D087B012D03B
:10370A0087B210D087B40ED087B60CD087B80AD04B
:10371A0087AA08D087BC06D087BE04D086B602D056
:10372A0086A8308D820E0C6EDD0E0D6E0D2EFED724
:10373A000C2EFCD700000000839A838C820E0C6E3C
:10374A00DD0E0D6E0D2EFED70C2EFCD700000000EC
:10375A0084B032D084B230D084B42ED084B62CD087
:10376A0084B82AD084BA28D084BC26D084BE24D077
:10377A0085B222D085B420D085B61ED085B81CD09B
:10378A0085BA1AD085BC18D085BE16D086B014D09A
:10379A0087B012D087B210D087B40ED087B60CD0BB
:1037AA0087B80AD087BA08D087AC06D087BE04D0BB
:1037BA0086B602D086A83083820E0C6EDD0E0D6EA0
:1037CA000D2EFED70C2EFCD700000000839C838EA2
:1037DA00820E0C6EDD0E0D6E0D2EFED70C2EFCD752
:1037EA000000000084B032D084B230D084B42ED02D
:1037FA0084B62CD084B82AD084BA28D084BC26D0E7
:10380A0084BE24D085B222D085B420D085B61ED0FD
:10381A0085B81CD085BA1AD085BC18D085BE16D0FA
:10382A0086B014D087B012D087B210D087B40ED029
:10383A0087B60CD087B80AD087BA08D087BC06D01A
:10384A0087AE04D086B602D086A83081820E0C6E6E
:10385A00DD0E0D6E0D2EFED70C2EFCD700000000DB
:10386A00839E8682820E0C6EDD0E0D6E0D2EFED7A5
:10387A000C2EFCD70000000084B032D084B230D0C5
:10388A0084B42ED084B62CD084B82AD084BA28D056
:10389A0084BC26D084BE24D085B222D085B420D060
:1038AA0085B61ED085B81CD085BA1AD085BC18D06A
:1038BA0085BE16D086B014D087B012D087B210D089
:1038CA0087B40ED087B60CD087B80AD087BA08D08A
:1038DA0087BC06D087BE04D086A602D086A83087C9
:1038EA00820E0C6EDD0E0D6E0D2EFED70C2EFCD741
:1038FA000000000086928684820E0C6EDD0E0D6E2C
:10390A000D2EFED70C2EFCD70000000084B032D05A
:10391A0084B230D084B42ED084B62CD084B82AD0C5
:10392A0084BA28D084BC26D084BE24D085B222D0C2
:10393A0085B420D085B61ED085B81CD085BA1AD0D9
:10394A0085BC18D085BE16D086B014D087B012D0E8
:10395A0087B210D087B40ED087B60CD087B80AD0F9
:10396A0087BA08D087BC06D087BE04D086B602D0F4
:10397A0086B83085820E0C6EDD0E0D6E0D2EFED7CA
:10398A000C2EFCD700000000869431AF53D031AD25
:10399A0051D032A34FD032A14DD031A74BD031A54F
:1039AA0049D031AB47D031A945D032A543D033A154
:1039BA0041D032AF3FD033A53DD033A33BD032A95B
:1039CA0039D032A737D032AD35D032AB33D031A36C
:1039DA0031D030AB2FD030A92DD030AF2BD030AD75
:1039EA0029D030A327D030A125D030A723D030A5A5
:1039FA0021D0010E3C6F21EC00F00C0E3C6F21EC43
:103A0A0000F0010E346F060E356F3C0E366F010E54
:103A1A00376FFEEC00F0060E0B6E130E0C6EAD0E39
:103A2A000D6E0D2EFED70C2EFCD70B2EFAD70000EA
:103A3A0000009CD0010E3C6F21EC00F00C0E3C6F94
:103A4A0021EC00F0010E346F030E356F2E0E366F27
:103A5A00010E376FFEEC00F0030E0B6E080E0C6EB3
:103A6A00770E0D6E0D2EFED70C2EFCD70B2EFAD725
:103A7A00010E3C6F21EC00F00C0E3C6F21EC00F0C3
:103A8A00030E0B6E080E0C6E770E0D6E0D2EFED702
:103A9A000C2EFCD70B2EFAD7010E346F030E356F9E
:103AAA00FA0E366F000E376FFEEC00F0030E0B6E47
:103ABA00080E0C6E770E0D6E0D2EFED70C2EFCD74F
:103ACA000B2EFAD7010E3C6F21EC00F00C0E3C6F66
:103ADA0021EC00F0030E0B6E080E0C6E770E0D6EC5
:103AEA000D2EFED70C2EFCD70B2EFAD7010E346FF3
:103AFA00030E356FEC0E366F000E376FFEEC00F0DA
:103B0A00030E0B6E080E0C6E770E0D6E0D2EFED781
:103B1A000C2EFCD70B2EFAD7010E3C6F21EC00F0CD
:103B2A000C0E3C6F21EC00F0030E0B6E080E0C6EAF
:103B3A00770E0D6E0D2EFED70C2EFCD70B2EFAD754
:103B4A00010E346F030E356F080E366F010E376F94
:103B5A00FEEC00F0030E0B6E080E0C6E770E0D6E67
:103B6A000D2EFED70C2EFCD70B2EFAD77DEF01F0C7
:023B7A00FFD773
:103D980010EE15F01B0E006E030E016E7C0EF66E13
:0E3DA8003B0EF76E000EF86EBEEC00F012003F
:0E3B7C00212121204552524F522021212100AB
:0E3B8A00212121204552524F5220212121009D
:0C3B9800382050696E204361626C6500AB
:0E3BA400212121204552524F52202121210083
:0B3BB20054657374696E672E2E2E00A0
:0C3BBD00342050696E204361626C65008A
:0E3BC900212121204552524F5220212121005E
:083BD70054657374204F4B008C
:0E3BDF00212121204552524F52202121210048
:083BED0054657374204F4B0076
:0E3BF500212121204552524F52202121210032
:0E3C0300212121204552524F52202121210023
:0E3C1100212121204552524F52202121210015
:0E3C1F00212121204552524F52202121210007
:0B3C2D0054657374696E672E2E2E0024
:0D3C380032352050696E204361626C6500DA
:0E3C4500212121204552524F522021212100E1
:0E3C5300212121204552524F522021212100D3
:0E3C6100212121204552524F522021212100C5
:0E3C6F00212121204552524F522021212100B7
:0B3C7D0054657374696E672E2E2E00D4
:0D3C880032362050696E204361626C650089
:0E3C9500212121204552524F52202121210091
:083CA30054657374204F4B00BF
:0E3CAB00212121204552524F5220212121007B
:0E3CB900212121204552524F5220212121006D
:0E3CC700212121204552524F5220212121005F
:0B3CD50054657374696E672E2E2E007C
:0D3CE00031342050696E204361626C650034
:083CED0054657374204F4B0075
:0B3CF50054657374696E672E2E2E005C
:0E3D0000212121204552524F52202121210025
:0E3D0E00212121204552524F52202121210017
:083D1C0054657374204F4B0045
:0B3D240054657374696E672E2E2E002C
:0D3D2F0031352050696E204361626C6500E3
:0E3D3C00212121204552524F522021212100E9
:083D4A0054657374204F4B0017
:0E3D5200212121204552524F522021212100D3
:0E3D6000212121204552524F522021212100C5
:0E3D6E00212121204552524F522021212100B7
:0E3D7C00212121204552524F522021212100A9
:0D3D8A0053656C656374206361626C6500B5
:020000040030CA
:0E00000015037F7CF98B91FFFFC0FFE0FF40EE
:00000001FF
